:020000040000fa
:080000000002040000000000f2
:020000040000fa
:04000800fe020000f4
:020000040000fa
:04000c00fe020000f0
:020000040000fa
:04001000fe020000ec
:020000040000fa
:04001400fe020000e8
:020000040000fa
:04001800fe020000e4
:020000040000fa
:04001c00fe020000e0
:020000040000fa
:04002000fe020000dc
:020000040000fa
:04002400fe020000d8
:020000040000fa
:04002800fe020000d4
:020000040000fa
:04002c00fe020000d0
:020000040000fa
:04003000fe020000cc
:020000040000fa
:04003400fe020000c8
:020000040000fa
:04003800fe020000c4
:020000040000fa
:04003c00fe020000c0
:020000040000fa
:04004000fe020000bc
:020000040000fa
:04004400fe020000b8
:020000040000fa
:04004800fe020000b4
:020000040000fa
:04004c00fe020000b0
:020000040000fa
:04005000fe020000ac
:020000040000fa
:04005400fe020000a8
:020000040000fa
:04005800fe020000a4
:020000040000fa
:04005c00fe020000a0
:020000040000fa
:04006000fe0200009c
:020000040000fa
:04006400fe02000098
:020000040000fa
:04006800fe02000094
:020000040000fa
:04006c00fe02000090
:020000040000fa
:04007000fe0200008c
:020000040000fa
:04007400fe02000088
:020000040000fa
:04007800fe02000084
:020000040000fa
:04007c00fe02000080
:020000040000fa
:04008000fe0200007c
:020000040000fa
:04008400fe02000078
:020000040000fa
:04008800fe02000074
:020000040000fa
:04008c00fe02000070
:020000040000fa
:04009000fe0200006c
:020000040000fa
:04009400fe02000068
:020000040000fa
:04009800fe02000064
:020000040000fa
:04009c00fe02000060
:020000040000fa
:0400a000fe0200005c
:020000040000fa
:0400a400fe02000058
:020000040000fa
:0400a800fe02000054
:020000040000fa
:0400ac00fe02000050
:020000040000fa
:0400b000fe0200004c
:020000040000fa
:0400b400fe02000048
:020000040000fa
:0400b800fe02000044
:020000040000fa
:0400bc00fe02000040
:020000040000fa
:0400c000fe0200003c
:020000040000fa
:0400c400fe02000038
:020000040000fa
:0400c800fe02000034
:020000040000fa
:0400cc00fe02000030
:020000040000fa
:0400d000fe0200002c
:020000040000fa
:0400d400fe02000028
:020000040000fa
:0400d800fe02000024
:020000040000fa
:0400dc00fe02000020
:020000040000fa
:0400e000fe0200001c
:020000040000fa
:0400e400fe02000018
:020000040000fa
:0400e800fe02000014
:020000040000fa
:0400ec00fe02000010
:020000040000fa
:0400f000fe0200000c
:020000040000fa
:0400f400fe02000008
:020000040000fa
:0400f800fe02000004
:020000040000fa
:0400fc00fe02000000
:020000040000fa
:04010000fe020000fb
:020000040000fa
:04010400fe020000f7
:020000040000fa
:04010800fe020000f3
:020000040000fa
:04010c00fe020000ef
:020000040000fa
:04011000fe020000eb
:020000040000fa
:04011400fe020000e7
:020000040000fa
:04011800fe020000e3
:020000040000fa
:04011c00fe020000df
:020000040000fa
:04012000fe020000db
:020000040000fa
:04012400fe020000d7
:020000040000fa
:04012800fe020000d3
:020000040000fa
:04012c00fe020000cf
:020000040000fa
:04013000fe020000cb
:020000040000fa
:04013400fe020000c7
:020000040000fa
:04013800fe020000c3
:020000040000fa
:04013c00fe020000bf
:020000040000fa
:04014000fe020000bb
:020000040000fa
:04014400fe020000b7
:020000040000fa
:04014800fe020000b3
:020000040000fa
:04014c00fe020000af
:020000040000fa
:04015000fe020000ab
:020000040000fa
:04015400fe020000a7
:020000040000fa
:04015800fe020000a3
:020000040000fa
:04015c00fe0200009f
:020000040000fa
:04016000fe0200009b
:020000040000fa
:04016400fe02000097
:020000040000fa
:04016800fe02000093
:020000040000fa
:04016c00fe0200008f
:020000040000fa
:04017000fe0200008b
:020000040000fa
:04017400fe02000087
:020000040000fa
:04017800fe02000083
:020000040000fa
:04017c00fe0200007f
:020000040000fa
:04018000fe0200007b
:020000040000fa
:04018400fe02000077
:020000040000fa
:04018800fe02000073
:020000040000fa
:04018c00fe0200006f
:020000040000fa
:04019000fe0200006b
:020000040000fa
:04019400fe02000067
:020000040000fa
:04019800fe02000063
:020000040000fa
:04019c00fe0200005f
:020000040000fa
:0401a000fe0200005b
:020000040000fa
:0401a400fe02000057
:020000040000fa
:0401a800fe02000053
:020000040000fa
:0401ac00fe0200004f
:020000040000fa
:0401b000fe0200004b
:020000040000fa
:0401b400fe02000047
:020000040000fa
:0401b800fe02000043
:020000040000fa
:0401bc00fe0200003f
:020000040000fa
:0401c000fe0200003b
:020000040000fa
:0401c400fe02000037
:020000040000fa
:0401c800fe02000033
:020000040000fa
:0401cc00fe0200002f
:020000040000fa
:0401d000fe0200002b
:020000040000fa
:0401d400fe02000027
:020000040000fa
:0401d800fe02000023
:020000040000fa
:0401dc00fe0200001f
:020000040000fa
:0401e000fe0200001b
:020000040000fa
:0401e400fe02000017
:020000040000fa
:0401e800fe02000013
:020000040000fa
:0401ec00fe0200000f
:020000040000fa
:0401f000fe0200000b
:020000040000fa
:0401f400fe02000007
:020000040000fa
:0401f800fe02000003
:020000040000fa
:0401fc00fe020000ff
:020000040000fa
:04020000fe020000fa
:020000040000fa
:04020400fe020000f6
:020000040000fa
:04020800fe020000f2
:020000040000fa
:04020c00fe020000ee
:020000040000fa
:04021000fe020000ea
:020000040000fa
:04021400fe020000e6
:020000040000fa
:04021800fe020000e2
:020000040000fa
:04021c00fe020000de
:020000040000fa
:04022000fe020000da
:020000040000fa
:04022400fe020000d6
:020000040000fa
:04022800fe020000d2
:020000040000fa
:04022c00fe020000ce
:020000040000fa
:04023000fe020000ca
:020000040000fa
:04023400fe020000c6
:020000040000fa
:04023800fe020000c2
:020000040000fa
:04023c00fe020000be
:020000040000fa
:04024000fe020000ba
:020000040000fa
:04024400fe020000b6
:020000040000fa
:04024800fe020000b2
:020000040000fa
:04024c00fe020000ae
:020000040000fa
:04025000fe020000aa
:020000040000fa
:04025400fe020000a6
:020000040000fa
:04025800fe020000a2
:020000040000fa
:04025c00fe0200009e
:020000040000fa
:04026000fe0200009a
:020000040000fa
:04026400fe02000096
:020000040000fa
:100400000f0421000eff27000e01880000000000ed
:10041000000020000000e000020032000001200087
:100420002002880014000700760007000000e000aa
:1004300003003a0020502100010020000200370094
:100440000000200001002000810f70000100320038
:100450000f000700000020000000e0000200320052
:100460000000020000000000ce13020000000000a7
:100470000040da000000fe00e00320000000e00081
:1004800002003200002020009001880000000600d9
:10049000a1028800800478000000eb001f003700f4
:1004a000e284440054a0b4009905ba00e2844400f8
:1004b00054a0b4009906ba00e284440054a0b400e9
:1004c0000006eb00476fde00fd07b200ae018800ba
:1004d000636ce10003003a000ad801000000eb0061
:1004e0000e003700606ce10008003a00004deb00a0
:1004f0000a05e800020039003420ec000af0a000f0
:100500008b05e900f9ff3e00040037006168e10057
:10051000010032000086eb000b00070019c7ba008b
:100520000e04e0001905ba0003003a000a00e000da
:10053000dbff3a0000000600fe07b200ae028800b2
:100540008a047800f5ff37000cd0a300e20f4d00bd
:100550001c00390089027800354dba000a05e80010
:10056000020039003420ec000af0a0008b05e900fd
:100570000f003200254dba000a05e80002003900dc
:100580003420ec000af0a0008b05e90008003200de
:100590000c00e0000600320015cdba000a05e800a4
:1005a000020039003420ec000af0a0008b05e900bd
:1005b0008984e80054a0b4000b00e000e2ff3a0098
:1005c000000006009902ba00055d78008b05e9007d
:1005d000f7ff3200c82ade00055d78008b05e900d0
:1005e000f3ff32000c00e000f1ff320019ddba0029
:1005f000eeff370004030400000000000040da00b2
:100600000000fe0000000500881f7800020478004a
:1006100008017800c4000700080040004f0478007b
:10062000000006000000fa00881f7800000478002f
:10063000ea8157003fb997008800780040302000d9
:10064000070007000000e00002003500000444003d
:10065000004ceb004f0478000080fa000000060018
:100660006200fa00889fbe008a1f780000057800ab
:1006700081047800020478008300780080f92f005c
:100680000f004000770107009a979f00a9979f00ed
:100690000000eb00b09f9f001885fb008a04fb0060
:1006a0000a05ea004f55de0050022000808f5400fa
:1006b0000d003200e10f55000b003a000a017800ee
:1006c000880078002f9097009f9197000300010009
:1006d000a0979f000000e0008e0032003f98970036
:1006e0000000e800b09f9f000a0444005002200070
:1006f000808f5400040032000900e000e6ff3a0059
:100700003f989700840037000000eb00909f9f0007
:10071000809f9f00f0979f00e0979f00d0979f00d9
:10072000c0979f0007003700a1032100010050007f
:1007300000004000e1022100808040005f989700a7
:1007400011007000d09f9f00880478000904780091
:10075000384578008a00fb00a003210079000700db
:100760000000e000f0ff3a00a1c2b300814f550045
:100770000e003a00cf8897000180e900c08f9f00eb
:1007800010007800c09f9f000000e00005003d00c1
:100790000000ea00c09f9f005f9897000020a00023
:1007a000d09f9f000904e8000f003700c09f9f0002
:1007b0000000eb0005003700f2ff2700820f500019
:1007c00002003200ea00b90000804000090478000d
:1007d00088047800b900fb000103b100e98f5000e4
:1007e000f5ff3600c09f9f00e0c2b300984f100095
:1007f000020032000080eb0019003700a0c2b300f5
:10080000d84f100007003a00cf8897000180e90018
:10081000c08f9f0010007800a09f9f000804e80090
:10082000100037000000eb00a09f9f0088007800b8
:1008300005003700f3ff2700830f5000020032004d
:10084000ea00b90000004100010478008800780047
:100850003101fb000203b100e90f5100f5ff360042
:10086000a09f9f00984478008900fb00600221004f
:10087000340007000000e000020032000804e80035
:10088000010037008044eb00c97f9f0080c6b300a1
:1008900080cf540004003a0098cf14000a003a00b8
:1008a0006640500006003700c0c6b30080cf540039
:1008b00005003a0098cf140003003a00654040005c
:1008c000c07f9f000804e8001801fb00e3fb2f0035
:1008d0008f81410081f92f008f804000a0f92f0007
:1008e0000f004000e10007000000e00009003a00ae
:1008f000e1fb2f008f804000a0f92f000f00400087
:100900001c0007000000e000020035000804e800b9
:1009100061ff37000080eb004f0578004f04be00f8
:100920000080fa0000000600800178000200370015
:10093000b15978000201e9000200e000fcff3a0032
:1009400000000600020037000304e0000600320049
:100950000001780002007800b041780081cf51009a
:10096000f9ff3a00010037000001eb0002007800b7
:10097000000006000400fa00889fbe008a9fbe00a7
:100980008c1f78000004780001067800f80d9000b4
:1009900078009000808555000808900080855500fb
:1009a0001808900080855500280890008085550023
:1009b00038089000808555004808900080855500d3
:1009c0000002220090bf9f0000032300a0bf9f00f1
:1009d000081090000028a30015003a000b00e0006a
:1009e000130034000b0578008a047800e20f5500ec
:1009f0000100360029002000c8019000090178009c
:100a0000ee80570058009000030001005004980049
:100a10000000e0008c0032006808900009004000ef
:100a2000600c9800090555004240a900eeff3c000b
:100a3000780190000200e0000c003400c801900032
:100a40008c007800580090000300010050049800ca
:100a50008080eb000000e0007c003200e80890009d
:100a60007800900000804000600c9800880c900096
:100a70000900e0001100340009057800e28f5400fd
:100a8000010036002a002000c80190000a01780009
:100a9000ec805700580090000300010050049800bb
:100aa0000000e00068003200680890000a00400082
:100ab000600c98008a845400edff370018099000fc
:100ac0000200e0000c003400c8019000e800900033
:100ad0005800900003000100500498008080eb0053
:100ae0000000e00059003200e8089000180890006b
:100af00000804000600c9800a80c90000900e00005
:100b00001100340009057800e28f5400010036001e
:100b10002a002000c80190000a017800ec805700ec
:100b20005800900003000100500498000000e0000d
:100b300045003200680890000a004000600c9800f0
:100b40008a845400edff3700380990000200e0006d
:100b50000e003400e80090001808900080804000eb
:100b6000c801900058009000030001005004980054
:100b70008080eb000000e00034003200e8089000c4
:100b80003808900000804000600c9800c80c90006d
:100b90000900e0001100340009057800e28f5400dc
:100ba000010036002a002000c80190000a017800e8
:100bb000ec8057005800900003000100500498009a
:100bc0000000e00020003200680890000a004000a9
:100bd000600c98008a845400edff370008109000e4
:100be0008000eb000028a300180032000b00e0009a
:100bf000160034008b04780009057800e28f540059
:100c0000010036002a002000c80190000a01780087
:100c1000ee80570058009000030001005004980037
:100c20000000e00008003200680890000a00400060
:100c3000600c98008a8454004240a900eeff3c00fa
:100c40008000eb00010037008080eb00010078009d
:100c50004f0678004f05be004f04be000080fa002a
:100c6000000006000108780000000600889fbe0012
:100c70008a9fbe00e4c6b300844f5100ce0032000c
:100c800010003c006b425200844f510018003200ab
:100c900005003c0054c2b300844f510006013200ed
:100ca00084c5b3000f00370044c6b300844f510021
:100cb0001500320065424200844f510001013a00a4
:100cc0001100370004c7b300844f5100ed0032001b
:100cd0005f00350065424200844f51005c003200e5
:100ce00063424200844f5100f6003a00580037003a
:100cf0001181e90082087800f000900081814100b4
:100d000092497800f500370020629000c5c6b30014
:100d1000854f520008003a00910278006482520028
:100d20008408780094029000140278004fabde0033
:100d3000860378001600370015c7b300854f5200b0
:100d400003003a00110478006802540005003700df
:100d5000a5c6b300854f520008003a009104780000
:100d60006882540084087800940290002403900064
:100d7000b403900014027800050037001182e900e6
:100d80008408780014027800cfa2de00612bb9003d
:100d90000498be000690be00a060900088c6b30014
:100da00088cf50000d00320028c6b30088cf500015
:100db00004003a000402fb00cfa2de00612bb90060
:100dc0000800370048c7b30088cf50000300320046
:100dd0006644440088cf500004003a00cfa2de00f1
:100de000612bb9000498be000690be001002780086
:100df0009002900020039000b0039000f00090005b
:100e0000e00f5200e08f5a00e00f5b00e08f5b00c4
:100e100003003d0001824100d5c2b3000a00370043
:100e2000001290000418a300030032000182410068
:100e3000b5c2b300040037000408a3005900320013
:100e40000182410005c2b300054a78005300370013
:100e500020629000c5c6b300854f520009003a00d9
:100e600011057800640255008408780014047800a5
:100e7000940490006055b8000802be000a03be004a
:100e80001600370015c7b300854f520003003a0023
:100e9000910478006882540005003700a5c6b300ad
:100ea000854f520008003a0011057800680255008d
:100eb000840878009402900024039000b40390000a
:100ec00014027800050037001182e90084087800d8
:100ed000140278008002eb006033b8000498be0072
:100ee0000690be00a060900088c6b30088cf500076
:100ef0000d00320028c6b30088cf500004003a002d
:100f00000482fb008002eb006033b8000800370069
:100f100048c7b30088cf5000030032006644440045
:100f200088cf500004003a008002eb006033b80024
:100f30000498be000690be00801090000138a30007
:100f400018003200100278009002900020039000f8
:100f5000b0039000e00f5200e08f5a00e00f5b00fa
:100f6000e08f5b000f00320081c7b300814f51005a
:100f70000300320081c5b300814f510009003a00df
:100f8000f00090000182410005c3b300054a7800db
:100f90008100e80001824100024a78008100e800f7
:100fa00071009800f000900081814100630098007a
:100fb000824078003e003700a0619000c4c6b300b4
:100fc0001181e90084cf5100220032000a003c0068
:100fd0006442520084cf51002500320004c2e80070
:100fe00084cf5100130032006842520084cf510078
:100ff0001e003a000a00370044c7b30084cf5100f6
:101000001b0032006642420084cf510018003200bb
:101010006942520084cf510014003a0005003700a5
:10102000820878009200780040589000804878004c
:101030002c0037008208780092007800600a900047
:10104000cfa2de00612bb9008498be008690be005e
:101050002400370082087800920078006009900030
:10106000cf91de008288be001e0037001181e900aa
:10107000820878009200780060089000800878006c
:10108000180037001181e900820878001202780008
:10109000cfa2de00612bb9000498be000690be000e
:1010a000f0009000818141006300980081c7b30087
:1010b000100007000b003700f00090008181410014
:1010c00005003700f0009000818141000204e0003b
:1010d00001003a0052c2b300824978008100e80062
:1010e000710098000000eb004f05be004f04be00e9
:1010f00000000600fc874700889fbe008a9fbe0054
:101100008c9fbe008e1f78000006780080c5b3005b
:1011100080cf50000a0032007740400080cf50005e
:101120000a0032006940400080cf50000b003200be
:101130005001210080bf9f00ae0020000a00370050
:101140004200210082bf9f000600370053012100aa
:1011500083bf9f008e002000030037005401210050
:1011600084bf9f000e0120001c0278009c029000aa
:101170002c039000bc0390000605be000404be00d2
:1011800040c6b30080cf50000300320065404000ed
:1011900080cf50000b003a00e00f5200e08f5a0061
:1011a000e00f5b00e08f5b0006003d006000b800d0
:1011b0006011b800040450008584580006055900e9
:1011c00087855900e80f57000400320040002000d6
:1011d000f00f57003c003a000100370030002000bb
:1011e000e00f5400e08f5c00e00f5d00e08f5d00d9
:1011f00004003a00dc0890008d0120000100e000ae
:10120000070032008e00e900888060008fba9700e6
:101210008180420091407800f1ef9f007d01200025
:10122000800078008100e900050033008b05d100c3
:101230000a85d3008984d3000884d300f9ff3700de
:10124000089ebe000a96be00130037008d06e90016
:101250008e00e900848060000fb997008100410092
:101260001141780083fd2f008d81410082f77900c4
:10127000800178008301e900050033008783d100f5
:101280000683d3008582d3000482d300f9ff3700a0
:10129000049ebe000696be001c0278009c029000d0
:1012a0002c039000bc039000e00f5200e08f5a0026
:1012b000e00f5b00e08f5b00930034000d00e00066
:1012c000e2ff3c00900037002c60900081c6b30024
:1012d000814f50000b00320006003c000004e0008b
:1012e00008003200e6c05000814f500052003a0022
:1012f00004003700c1c6b300814f50004e003a00d1
:10130000230037000800e00004003a005c08900069
:101310008d0120000000e0000700320011000900ec
:101320000e84d8000fba97000100420010407800e8
:10133000f0ef9f007d012000110009000e84d8000d
:101340000b003700110009000e04d8008d06e900db
:101350008e81b900020454008fb8970008844000c1
:101360009841780082fd2f000d01410083777900bc
:10137000000478000800e000020032000d00e000e8
:10138000f0ff3c00cfc4de00614db90027003700fc
:10139000e00f5400e08f5c0004003a005c0890000d
:1013a0008d0120000000e000080032006171b900ea
:1013b0000800be00ab0007000fba97008000420093
:1013c00091407800f1ef9f007d0120006171b9002c
:1013d0000800be00930007000c0037006171b900df
:1013e0000800be00800007008d06e90080f1b9000a
:1013f000020454008fba9700088442009841780094
:1014000082fd2f000d014100837779000004be00aa
:10141000e00f5000e08f5800020032000d00e000a5
:10142000eeff3c004fcdde008a057800089ebe002e
:101430000a96be0034003700e00f5400e08f5c00d5
:10144000e00f5d00e08f5d0004003a005c08900052
:101450008d0120000000e0000a0032006172b90036
:10146000612bb9000800be000a01be00220107007e
:101470000fba97008000420091407800f1ef9f0082
:101480007d0120006172b900612bb9000800be0027
:101490000a01be00110107000e0037006172b90099
:1014a000612bb9000800be000a01be00160107004a
:1014b0008d06e90080f2b900040454008fba970049
:1014c000088442009842780084fd2f000d024200fb
:1014d00085777a00009ebe000296be001c0478004c
:1014e0009c0490002c059000bc059000e00f540077
:1014f000e08f5c00e00f5d00e08f5d0002003400d3
:101500000d00e000e5ff3c00e80f570010003a0036
:101510000c1090000038a3000d003200f78f560029
:1015200006003e0080fd2f000d004000ef407800d7
:1015300000c3b30080cf50000500320002c3b300e7
:1015400071fd2f008d8040008d06e90082f7780044
:1015500078811600120e98006c00900083fd2f0019
:101560008f8141008d804100effc07001c08900036
:10157000dc089000810f500006003d000080500004
:10158000000e98000c1090000040a100001698007a
:101590000f0037000100e0000d003d008c109000ae
:1015a000f4806000f08f500009003a007c09900040
:1015b000fc009000810051000c09900082805000d6
:1015c000008050004240a90001003400000e980045
:1015d0004f0778004f06be004f05be004f04be0007
:1015e000cf01b10000000600839f68000100e00009
:1015f00002003d0060001000e08018000300e000e1
:1016000002003d0060011100e081190005000700a3
:101610004f00e00002003b0060001000e080180076
:10162000000006006022b800060220000000d00082
:101630008180d2000482d2008582d2000000a00006
:101640000202520083825a0003003100020242006b
:1016500083824a000000a1000603e900f3ff3a007c
:1016600000000600efff07000400be0000000600b7
:10167000889fbe008a9fbe0030044200b0844a00aa
:1016800030054b0090854b006000b1000898be000b
:101690000a90be000440e10005c8e10006d0e10068
:1016a00007d8e10002003100680040001008e8009f
:1016b0004f05be004f04be0000000600889fbe001c
:1016c0008a9fbe00100478009004900020059000ce
:1016d000b00590000418540005985c0006185d00e1
:1016e00007985d00110020000440e10005c8e100fa
:1016f00006d0e10007d8e100010039008000eb00ce
:10170000108810004f05be004f04be000000060008
:101710001200fa00889fbe008a9fbe008c9fbe0008
:10172000e0b79f00f1b79f0082bf9f0093bf9f006b
:101730000605be000404be000000eb00d0b79f0009
:10174000c0b79f00b0b79f00a0b79f0090b79f00a1
:101750000006eb005fb19700cfb097008201410017
:101760003fb097000200e00004003d003700070092
:101770007e805700beff07000300370033000700dc
:101780007e805700cdff0700dfb697000d00e00018
:101790000c0035006fb29700ffb297000fbb9700a7
:1017a0009fbb970010002000010020006011b800ce
:1017b000000272008182720002037300838373004f
:1017c0001b0007000c06e80001042000810f5600f2
:1017d000e0ff3a000d00e00004003d000802be00fa
:1017e0000a03be007e805700a1ff07005fa8970094
:1017f0000000e00005003a001fb29700afb297006a
:101800003fb39700cfb39700090007006fb0970070
:10181000ffb097000fb997009fb997004f06be0021
:101820004f05be004f04be000080fa000000060015
:101830000100070000000600a4b79f00b5b79f0095
:10184000c6b79f00d7b79f00000006004f09de0013
:1018500082817100b3b79f004f01de00818040009c
:1018600082807000a1b79f008fb097004f09de0003
:10187000000040000200700090b79f007fa8970012
:101880004f01de00818040008280700081b79f00a0
:101890000d0007004f3ade00000040000400700019
:1018a000f0af9f00080007000402420085824a0052
:1018b00006034b0087834b00dfff07000802be00d2
:1018c0000a03be00000006002fb29700bfb29700c7
:1018d0004fb39700dfb3970000000600881f780021
:1018e00018002000881f780089ff07008f87e90013
:1018f0004f04780000000600801feb0084ff070003
:101900008f87e90000000600889fbe008a9fbe0006
:10191000e00f5000e08f5800e00f5900e08f5900b1
:101920000c003d006044b8006055b8000000540051
:1019300081805c0002015d0083815d001800200051
:101940001500070008003d00180007000004eb0028
:10195000050037000004eb000f00070002003d0007
:101960001200070018002000dcff07000800e0005c
:10197000060032006022b8006033b8000000520058
:1019800081805a0002015b0083815b004f05be002d
:101990004f04be0000000600e00f5200e08f5a0026
:1019a000e00f5b00e08f5b00000006006044b800c1
:1019b0006055b8000402540085825c0006035d0097
:1019c00087835d0000000600889fbe008a9fbe00de
:1019d0008c1f7800e00f5000e08f5800e00f590096
:1019e000e08f59000d003d006044b8006055b8001c
:1019f0000000540081805c0002015d0083815d0075
:101a00001c0020000820e10009a8e1000ab0e10064
:101a10000bb8e1000d003d00080037000006eb00a8
:101a2000e00f5200e08f5a00e00f5b00e08f5b0098
:101a300006003d006044b8006055b8000402540040
:101a400085825c0006035d0087835d00aaff0700b6
:101a50000c00e000060032006022b8006033b800dd
:101a60000000520081805a0002015b0083815b000c
:101a70004f0678004f05be004f04be000000060070
:020000040000fa
:101a800025300000326400003a25000030320000aa
:101a900064000000506c0000617900006572000075
:101aa000413a0000000d00000a5000006c61000087
:101ab00079650000724200003a00000047610000b2
:101ac0006d6500004f760000657200000d0a000091
:101ad000506c000061790000657200002042000037
:101ae000207700006f6e00002100000057650000a5
:0c1af0006c6300006f6d000065000000da
:020000040000fa
:101afc000400fa00000f7800214798001e007800bf
:101b0c00e30f500073003200e30f500005003e005d
:101b1c00e10f50002d003200e10f50004c003e0050
:101b2c0009003700e50f5000ab003200e50f500004
:101b3c0089003900e60f5000c7003200e70f500053
:101b4c00e5003200130137001f0ea900190ea90081
:101b5c002e409000e14f5000030032002e409000c8
:101b6c000004e0000d003a002e409000614060003f
:101b7c000080fb00610060004800dd008270800086
:101b8c00f1ef2f008100610001007000807088006f
:101b9c001b0ea9001d0ea900fe0037002e40900060
:101bac00e24f500003003a00110ea8001b0ea800d3
:101bbc00f80037002e409000e34f5000e6003a004a
:101bcc00110ea8001d0ea800f20037001f2ea90050
:101bdc00192ea9002e409000e14f50000300320056
:101bec002e4090000004e0000d003a002e409000c2
:101bfc00614060000080fb00610060004900dd0076
:101c0c0082708000f1df2f00810061000100700004
:101c1c00807088001b2ea9001d2ea900dd00370046
:101c2c002e409000e24f500003003a00112ea80005
:101c3c001b2ea800d70037002e409000e34f500019
:101c4c00c7003a00112ea8001d2ea800d1003700a5
:101c5c001f4ea900194ea9002e409000e14f5000d4
:101c6c00030032002e4090000004e0000d003a000a
:101c7c002e409000614060000080fb00610060001d
:101c8c004a00dd0082708000f1bf2f0081006100ee
:101c9c0001007000807088001b4ea9001d4ea90029
:101cac00bc0037002e409000e24f500003003a0079
:101cbc00114ea8001b4ea800b60037002e40900015
:101ccc00e34f5000a8003a00114ea8001d4ea8008a
:101cdc00b00037001f6ea900196ea9002e409000ad
:101cec00e14f5000030032002e4090000004e00051
:101cfc000d003a002e409000614060000080fb0017
:101d0c00610060004b00dd0082708000f17f2f00cd
:101d1c008100610001007000807088001b6ea900ba
:101d2c001d6ea9009b0037002e409000e24f500022
:101d3c0003003a00116ea8001b6ea8009500370036
:101d4c002e409000e34f500089003a00116ea8001d
:101d5c001d6ea8008f003700698ea9002e409000e0
:101d6c00e14f5000030032002e4090000004e000d0
:101d7c000d003a002e409000614060000080fb0096
:101d8c00610060004c00dd0002738000f1ff2e004a
:101d9c008100610001007000007388006b8ea90047
:101dac006d8ea9007b0037002e409000e24f500052
:101dbc0003003a00618ea8006b8ea80075003700f6
:101dcc002e409000e34f50006b003a00618ea8004b
:101ddc006d8ea8006f00370069aea9002e409000f0
:101dec00e14f5000030032002e4090000004e00050
:101dfc000d003a002e409000614060000080fb0016
:101e0c00610060004d00dd0002738000f1ff2d00c9
:101e1c008100610001007000007388006baea900a6
:101e2c006daea9005b0037002e409000e24f5000d1
:101e3c0003003a0061aea8006baea8005500370055
:101e4c002e409000e34f50004d003a0061aea800c8
:101e5c006daea8004f00370069cea9002e4090004f
:101e6c00e14f5000030032002e4090000004e000cf
:101e7c000d003a002e409000614060000080fb0095
:101e8c00610060004e00dd0002738000f1ff2b004a
:101e9c008100610001007000007388006bcea90006
:101eac006dcea9003b0037002e409000e24f500051
:101ebc0003003a0061cea8006bcea80035003700b5
:101ecc002e409000e34f50002f003a0061cea80046
:101edc006dcea8002f00370069eea9002e409000af
:101eec00e14f5000030032002e4090000004e0004f
:101efc000d003a002e409000614060000080fb0015
:101f0c004f00dd0002738000f1ff270081006100ab
:101f1c0001007000007388006beea9006deea90043
:101f2c00000000001b0037002e409000e24f5000d4
:101f3c0003003a0061eea8006beea8001500370014
:101f4c002e409000e34f500011003a0061eea800c3
:101f5c006deea8000f003700000000000d003700e8
:101f6c00000000000b0037000000000009003700e3
:101f7c0000000000070037000000000005003700db
:101f8c0000000000030037000000000001003700d3
:101f9c00000000000080fa00000006000200fa00b9
:101fac00000f78001e007800e70f50001c00320074
:101fbc00e70f500007003e00e50f50001000320004
:101fcc00e50f500012003e00e40f500008003200f4
:101fdc0023003700ec0f500019003200ed0f5000b9
:101fec001b003200eb0f5000110032001c003700b8
:101ffc00107380004c00de00614060001900370057
:10200c00107380004d00de00614060001500370049
:10201c00107380004e00de0061406000110037003c
:10202c00107380004f00de00004078000d00370078
:10203c001073800000407800614060000900370098
:10204c00107380000000d100614060000500370073
:10205c00107380004900de00614060000100370011
:10206c000040eb000080fa00000006000400fa00bb
:10207c00000f7800214798001e007800e10f5000f7
:10208c0012003200e10f500005003900e20f500041
:10209c0019003200e30f5000220032002c003700f0
:1020ac002e409000614060000080fb0061006000e9
:1020bc004800dd00a2708000f1ef2f00810061006c
:1020cc0001007000a0708800210037002e409000a5
:1020dc00614060000080fb00610060004900dd0091
:1020ec00a2708000f1df2f00810061000100700000
:1020fc00a0708800160037002e40900061406000f0
:10210c000080fb00610060004a00dd00a2708000ce
:10211c00f1bf2f008100610001007000a0708800e9
:10212c000b0037002e409000614060000080fb00e7
:10213c00610060004b00dd00a2708000f17f2f0079
:10214c008100610001007000a07088000000000098
:10215c000080fa00000006000200fa00000f780070
:10216c00a1708000f00f2f0000806000a07088002c
:10217c001e007800c800dd00a07080000100700017
:10218c00a07088000080fa00000006000000fa0031
:10219c006f2ea900600ea800602ea800612ea8006a
:1021ac006a0ea8006a2ea8006b2ea8000080fa0008
:1021bc00000006000200fa00881f7800b000200022
:1021cc0076ff07000080fb000000ea004f00de00f5
:1021dc00004f780006003700d00020006fff07008a
:1021ec000004e00002003a000040eb001100370050
:1021fc001e84fb00b000200068ff07000080fb007d
:10220c00800f5400f4ff32001e4078000004a2003e
:10221c000084fb00c000200060ff07000080fb0072
:10222c00800f540002003a0000c0eb0001003700a0
:10223c0010c0b3004f0478000080fa0000000600c4
:10224c000000fa006f0ea900610ea900690ea9002a
:10225c000080fa00000006000000fa00f03f2000a9
:10226c001030880030382800003088001000200022
:10227c0060308800907f24000100200009010700d5
:10228c000426ef008003200040308800c0002000ae
:10229c0001002000030107000426ef00c00020000d
:1022ac0040308800c000200001002000fd00070025
:1022bc000426ef006000200040308800c0002000a1
:1022cc0001002000f70007006d00070010c0b300ec
:1022dc000080fa00000006000400fa00000f7800ed
:1022ec00110798000a0037001e0078001040780093
:1022fc000000fb000000e000110032001e0078001e
:10230c00104078001e0fe8001000070000000000cd
:10231c001e00900000f0a7000000ea000000ea0098
:10232c004f00de00004078009e0090008100e90024
:10233c00110798000004e000ebff3a0001003700a1
:10234c00000000000080fa00000006000200fa0005
:10235c00004f78001e00fb00ea0f50000e00320008
:10236c00ea0f500003003c00e80f5000150032004b
:10237c001b003700ec0f500017003200ed0f50001f
:10238c0017003a0002d0bf00ea4f5000360032006e
:10239c004c0007003500370002d0bf00ed4f500055
:1023ac00010032004700070000d0bf000004e0002d
:1023bc0002003a00b00007002c003700a300070011
:1023cc002a0037005300070000c2b300dfff0700ec
:1023dc0050000700250037002900070023003700b4
:1023ec0001d0bf00f04f500014003a000170ef0014
:1023fc0000d0bf000004e00009003a000426ef0002
:10240c00000c200040308800c0002000010020009b
:10241c00a400070010c0b30000f0b700070037009d
:10242c000426ef000008200040308800c000200087
:10243c00010020009b0007000070ef00100020003e
:10244c00203088001e00fb0040308800c0002000b7
:10245c00010020009300070001d0bf000040e800fd
:10246c0001f0b70001003700000000001e417800a9
:10247c0021002100824878000080fa00000006004c
:10248c000000fa000426ef00100020004030880005
:10249c00701f200001002000820007000426ef00be
:1024ac002000200040308800701f20000100200018
:1024bc007c0007000070ef000170ef000080fa0054
:1024cc00000006000000fa0000d0bf000004e0008d
:1024dc0007003a000426ef00000820004030880076
:1024ec00c0002000010020006e000700060037002d
:1024fc000426ef00000c200040308800c0002000b3
:10250c0001002000670007000170ef000080fa0056
:10251c00000006000200fa0001d0bf000004e00039
:10252c001c003a0000d0bf000004e00009003a0093
:10253c000426ef00000c200040308800c000200072
:10254c00010020005700070010c0b30000f0b700d6
:10255c00070037000426ef000008200040308800f8
:10256c00c0002000010020004e0007000070ef00aa
:10257c000040eb00004f780002003700100007000d
:10258c001e4fe8001e407800ee4f5000fbff360057
:10259c000900370001d0bf000040e90001f0b7008e
:1025ac000426ef000001200040308800c00020000d
:1025bc00010020003b0007000080fa00000006002c
:1025cc000000fa000426ef00400120004030880093
:1025dc00c0002000010020003200070001d0bf0025
:1025ec000040e80001f0b70001d0bf00f04f5000f0
:1025fc0014003a000170ef0000d0bf000004e000ae
:10260c0009003a000426ef00000c2000403088003e
:10261c00c0002000010020002200070010c0b30001
:10262c0000f0b700070037000426ef000008200078
:10263c0040308800c0002000010020001900070075
:10264c000070ef000080fa00000006000200fa00a3
:10265c000040eb00004f780002003700adff070090
:10266c001e4fe8001e407800ef4f5000fbff360075
:10267c000080fa00000006000200fa000040eb00a7
:10268c00004f780002003700cdff07001e4fe80016
:10269c001e407800ef4f5000fbff36000080fa0020
:1026ac00000006000400fa00008fbe000500370091
:1026bc00000000000081eb008081eb001e0f410048
:1026cc005e9749001e0078009e009000e00f5000bd
:1026dc00e08f5800f6ff3a000080fa000000060078
:1026ec000200fa00004f78001e4078000004e00061
:1026fc00070032000426ef00f00020004030880074
:10270c00c000200001002000e6ff07000600370093
:10271c000426ef00c000200040308800c0002000dc
:10272c0001002000dfff07000080fa000000060017
:10273c000400fa00100798000000eb00000f78006e
:10274c000e0037000000eb00000f7800040037008b
:10275c000000000000000000000000001e0fe80058
:10276c00501620009e007800808f5000f8ff360035
:10277c001e0090000000e900100798001e00900059
:10278c000000e000efff3a000080fa0000000600b5
:10279c008a00fa001f0ea900190ea9001b0ea90031
:1027ac001d0ea900110ea900150ea9000040eb008a
:1027bc00004f78000040eb00104798000000eb0041
:1027cc0010079800a0002000200798000000eb00e4
:1027dc0030079800a0002000400798009efe0700dc
:1027ec00a40007000100370000000000004080003a
:1027fc00680060000000e000fbff3200a170800068
:10280c00001020000080600000f0a7000000ea002b
:10281c000000e9004f00de00004078000080fb0063
:10282c00610060004800dd00a2708000f1ef2f0015
:10283c008100610001007000a070880010ff07008b
:10284c006a004700ae009000811f78009e00900047
:10285c00811f780001d42800811f78006ef70700d3
:10286c00e687570091002000a0d428009afe0700ac
:10287c006a0047005100200097fe07006a004700dd
:10288c00ce009000811f7800be009000811f780060
:10289c0001d42800811f78005ff70700e6875700f6
:1028ac00a100200030d528008bfe07006a004700ed
:1028bc005100200088fe070070002000b7fd0700c3
:1028cc000004e00004003a0010c0b300004f780090
:1028dc000040eb001047980060002000affd07009f
:1028ec000004e00004003a0010c0b3001047980048
:1028fc000040eb00004f78001e4078000004e00020
:10290c001c0032002e0090000000e9002007980007
:10291c002e0090000000e00008003a001e0090001d
:10292c000000e000050032001e0090000000e900ed
:10293c0010079800b0032000200798001e0090009c
:10294c000000e0000b003a002e0090000000e000b8
:10295c0008003a00cafe070051012000e0d528000b
:10296c005dfe07008038210071ff07000040eb007e
:10297c00004f78001e4090000004e0001c00320064
:10298c004e0090000000e900400798004e009000b7
:10299c000000e00008003a003e0090000000e0005b
:1029ac00050032003e0090000000e900300798005e
:1029bc00b0032000400798003e0090000000e000ab
:1029cc000b003a004e0090000000e00008003a00b6
:1029dc00abfe070051012000e0d528003efe0700a9
:1029ec008038210052ff07000040eb001047980090
:0829fc000068a9007dff37000f
:020000040000fa
:102a040000100000040000008000000026100000f8
:102a14001a00000082000000686a6c00747a4c009e
:102a24000000010000020000040008000010000083
:102a3400000020002b2d23003000000004100000b3
:102a440022000000820000003031320033343500af
:102a540036373800394142004344450046003000cf
:102a6400313233003435360037383900616263005f
:0c2a740064656600000000000000000027
:020000040000fa
:102a80000000fa0005e1a9000421a90004c1a90081
:102a90002108800000032000010070002008880049
:102aa0000021ef0090d023001008880005e1a80065
:102ab0000080fa00000006000000fa0091002000eb
:102ac00060d7280007fe07000080fa00000006001b
:020000040000fa
:0200000401f009
:04000800cfff000026
:020000040000fa
:0200000401f009
:04000c00faffff00f8
:020000040000fa
:0200000401f009
:04001000bdffff0031
:020000040000fa
:0200000401f009
:040014007fffff006b
:020000040000fa
:0200000401f009
:04001800ffffff00e7
:020000040000fa
:0200000401f009
:04001c00dfffff0003
:020000040000fa
:0200000401f009
:04002000cfffff000f
:00000001FF
